:100000000C9464000C948C000C948C000C948C0068
:100010000C948C000C948C000C948C000C948C0030
:100020000C948C000C948C000C948C000C948C0020
:100030000C948C000C948C000C948C000C948C0010
:100040000C9434020C948C000C94A4020C947E0248
:100050000C948C000C948C000C948C000C948C00F0
:100060000C948C000C948C000000000023002600EF
:10007000290052756E0000000000240027002A00AD
:1000800000000000250028002B00040404040404E0
:100090000404020202020202030303030303010237
:1000A0000408102040800102040810200102040806
:1000B00010200000000800020100000304070000F7
:1000C000000000000000E30411241FBECFEFD8E0C1
:1000D000DEBFCDBF11E0A0E0B1E0EAE9FCE002C084
:1000E00005900D92A631B107D9F721E0A6E1B1E064
:1000F00001C01D92A43DB207E1F710E0C4E6D0E0D4
:1001000004C02197FE010E941005C336D107C9F72C
:100110000E94D6020C944B060C940000833081F0B0
:1001200028F4813099F08230A1F008958730A9F049
:100130008830B9F08430D1F4809180008F7D03C085
:10014000809180008F7780938000089584B58F77A9
:1001500002C084B58F7D84BD08958091B0008F77F3
:1001600003C08091B0008F7D8093B00008951F93ED
:10017000CF93DF93282F30E0F901EE54FF4F8491A5
:10018000F901E256FF4FD491F901E657FF4FC491B0
:10019000CC23C1F0162F81110E948E00EC2FF0E0CD
:1001A000EE0FFF1FE058FF4FA591B4919FB7F89451
:1001B000111104C08C91D095D82302C0EC91DE2B94
:1001C000DC939FBFDF91CF911F910895CF93DF9371
:1001D00090E0FC01E256FF4F2491FC01E657FF4FEF
:1001E0008491882361F190E0880F991FFC01EA58FF
:1001F000FF4FC591D491FC01E058FF4FA591B491F8
:10020000611109C09FB7F894888120958223888363
:10021000EC912E230BC0623061F49FB7F894888173
:10022000322F309583238883EC912E2B2C939FBF04
:1002300006C08FB7F894E8812E2B28838FBFDF91FB
:10024000CF910895CF92DF92EF92FF920F931F9379
:10025000CF93DF936C017A018B01C0E0D0E0CE1523
:10026000DF0581F0D8016D918D01D601ED91FC91F2
:100270000190F081E02DC6010995892B11F021969E
:10028000EECF7E01C701DF91CF911F910F91FF90BB
:10029000EF90DF90CF900895089580E090E008956A
:1002A000FC01538D448D252F30E0842F90E0821B7C
:1002B000930B541710F0CF96089501970895FC0101
:1002C000918D828D981761F0828DDF01A80FB11D8D
:1002D0005D968C91928D9F5F9F73928F90E00895B1
:1002E0008FEF9FEF0895FC01918D828D981731F06B
:1002F000828DE80FF11D858D90E008958FEF9FEFBF
:100300000895FC01918D228D892F90E0805C9F4F94
:10031000821B91098F739927089586E191E00E94CD
:10032000810121E0892B09F420E0822F0895FC014E
:10033000848DDF01A80FB11DA35ABF4F2C91848D6E
:1003400090E001968F739927848FA689B7892C93A3
:10035000A089B1898C91837080648C93938D848DF6
:10036000981306C00288F389E02D80818F7D8083F9
:100370000895EF92FF920F931F93CF93DF93EC01B9
:1003800081E0888F9B8D8C8D981305C0E889F98951
:10039000808185FD26C0F62E0B8D10E00F5F1F4F6C
:1003A0000F731127E02E8C8DE8120CC00FB607FCDE
:1003B000FACFE889F989808185FFF5CFCE010E94C7
:1003C0009701F1CF8B8DFE01E80FF11DE35AFF4F2E
:1003D000F0829FB7F8940B8FEA89FB898081806255
:1003E0000AC09FB7F894EE89FF896083E889F9898C
:1003F00080818370806480839FBF81E090E0DF9183
:10040000CF911F910F91FF90EF900895CF93DF93BD
:10041000EC01888D8823C9F0EA89FB89808185FDFC
:1004200005C0A889B9898C9186FD0FC00FB607FC5D
:10043000F5CF808185FFF2CFA889B9898C9185FF9E
:10044000EDCFCE010E949701E7CFDF91CF910895C4
:1004500080E090E0892B29F00E948D0181110C949D
:10046000000008950E9446061F920F920FB60F9249
:1004700011242F933F938F939F93AF93BF938091BA
:10048000D0019091D101A091D201B091D3013091CE
:10049000CF0123E0230F2D3720F40196A11DB11DBC
:1004A00005C026E8230F0296A11DB11D2093CF01A0
:1004B0008093D0019093D101A093D201B093D30146
:1004C0008091CB019091CC01A091CD01B091CE0152
:1004D0000196A11DB11D8093CB019093CC01A093F7
:1004E000CD01B093CE01BF91AF919F918F913F917C
:1004F0002F910F900FBE0F901F9018951F920F9283
:100500000FB60F9211242F933F934F935F936F93E6
:100510007F938F939F93AF93BF93EF93FF9386E166
:1005200091E00E949701FF91EF91BF91AF919F9150
:100530008F917F916F915F914F913F912F910F908C
:100540000FBE0F901F9018951F920F920FB60F922B
:1005500011242F938F939F93EF93FF93E0912601A4
:10056000F09127018081E0912C01F0912D0182FD15
:1005700012C0908180912F018F5F8F732091300185
:10058000821751F0E0912F01F0E0EA5EFE4F958F67
:1005900080932F0101C08081FF91EF919F918F91F6
:1005A0002F910F900FBE0F901F901895CF93DF9350
:1005B000CDB7DEB72A970FB6F894DEBF0FBECDBF1A
:1005C000789484B5826084BD84B5816084BD85B52E
:1005D000826085BD85B5816085BD80916E0081603A
:1005E00080936E00109281008091810082608093E0
:1005F00081008091810081608093810080918000E2
:100600008160809380008091B10084608093B1000C
:100610008091B00081608093B00080917A00846006
:1006200080937A0080917A00826080937A00809132
:100630007A00816080937A0080917A00806880934C
:100640007A001092C10083E0898362E089810E9470
:10065000E60099819F5F99839E30B9F761E08DE054
:100660000E94E60060E08DE00E94B70061E08EE04D
:100670000E94E60061E08FE00E94E60061E080E118
:100680000E94E60061E081E10E94E60061E082E113
:100690000E94E60061E083E10E94E60061E084E1FF
:1006A0000E94E60061E085E10E94E60060E08EE0E5
:1006B0000E94B70060E08FE00E94B70060E080E138
:1006C0000E94B70060E081E10E94B70060E082E133
:1006D0000E94B70060E083E10E94B70060E084E11F
:1006E0000E94B70060E085E10E94B700809164003D
:1006F00081608093640080916400846080936400D2
:10070000F89480E88093610081E0809361007894A0
:10071000E0912601F091270182E08083E09122019F
:10072000F09123011082E0912401F091250180E1F4
:10073000808310922E01E0912A01F0912B0186E036
:100740008083E0912801F09129018081806180837C
:10075000E0912801F0912901808188608083E091F7
:100760002801F0912901808180688083E09128012F
:10077000F091290180818F7D80831092C3011092B6
:10078000C4011092C5011092C6011092C7011092C7
:10079000C8011092C901A0E8A093CA01BFEFB093AD
:1007A000BB01B093BC01B093BD01B093BE01B09347
:1007B000BF01B093C001B093C101EFE7E093C20164
:1007C00080E090E0A0E8BFE38093B7019093B80188
:1007D000A093B901B093BA018FEF9FEFAFE7BFE7E6
:1007E0008093B3019093B401A093B501B093B60187
:1007F00002E710E0F8016491611145C042E050E069
:1008000062E171E086E191E00E9422012090C30143
:100810003090C4014090C5015090C6016090C7015E
:100820007090C801F091C901FA878091CA01898747
:100830009091BB019983A091BC01AA83B091BD01A5
:10084000BB83E091BE01EC83F091BF01FD838091F9
:10085000C0018E839091C1019F83A091C201A8879E
:100860008090B7019090B801A090B901B090BA0102
:10087000C090B301D090B401E090B501F090B60102
:1008800000E010E00AC086E191E00E94B9010F5F2C
:100890001F4F892B09F0AECFB1CF27E139ED46EDDF
:1008A0005FE3C501B4010E94D9054B015C0127E15A
:1008B00039ED46ED5FE3C701B6010E9416056B01F5
:1008C0007C010F5F1F4F083EB3E01B0731F791011A
:1008D000A201B3018A8599852854344F4F4F5F4F49
:1008E0006F4F7F4F8F4F9F4F2093C3013093C401B1
:1008F0004093C5015093C6016093C7017093C8012E
:100900008093C9019093CA0129813A814B815C810E
:100910006D817E818F819885285B3B40410951091B
:1009200061097109810991092093BB013093BC01D0
:100930004093BD015093BE016093BF017093C0010D
:100940008093C1019093C2018092B7019092B80147
:10095000A092B901B092BA01C092B301D092B40191
:10096000E092B501F092B60100E010E0F02EF8013F
:10097000EE54FF4F8491F801E256FF4F9491998312
:10098000F801E657FF4FE490EE2089F081110E94B4
:100990008E00EE2DF0E0EE0FFF1FE859FF4FA591FE
:1009A000B491EC91A981AE2311F060E001C061E047
:1009B0008F2D0E94B7000F5F1F4F03301105B1F656
:1009C0000E942802DACEE6E1F1E01382128288EE7C
:1009D00093E0A0E0B0E084839583A683B78384E0AE
:1009E00091E09183808385EC90E09587848784EC07
:1009F00090E09787868780EC90E0918B808B81ECEC
:100A000090E0938B828B82EC90E0958B848B86ECCC
:100A100090E0978B868B118E128E138E148E089514
:100A2000EE0FFF1F0590F491E02D09940E942A0516
:100A30000C949F050E94980558F00E94910540F083
:100A400029F45F3F29F00C94880551110C94D305CB
:100A50000C948E050E94B00568F39923B1F35523D9
:100A600091F3951B550BBB27AA27621773078407C1
:100A700038F09F5F5F4F220F331F441FAA1FA9F357
:100A800035D00E2E3AF0E0E832D091505040E69545
:100A9000001CCAF72BD0FE2F29D0660F771F881FA6
:100AA000BB1F261737074807AB07B0E809F0BB0B99
:100AB000802DBF01FF2793585F4F3AF09E3F5105AD
:100AC00078F00C9488050C94D3055F3FE4F3983ECE
:100AD000D4F3869577956795B795F7959F5FC9F796
:100AE000880F911D9695879597F90895E1E0660F17
:100AF000771F881FBB1F621773078407BA0720F090
:100B0000621B730B840BBA0BEE1F88F7E0950895F8
:100B100097F99F6780E870E060E008959FEF80ECB0
:100B2000089500240A941616170618060906089553
:100B300000240A9412161306140605060895092EB9
:100B40000394000C11F4882352F0BB0F40F4BF2B28
:100B500011F460FF04C06F5F7F4F8F4F9F4F089568
:100B600057FD9058440F551F59F05F3F71F047955E
:100B7000880F97FB991F61F09F3F79F08795089543
:100B8000121613061406551FF2CF4695F1DF08C062
:100B9000161617061806991FF1CF8695710561057F
:100BA00008940895E894BB2766277727CB0197F927
:100BB00008950E94EC050C949F050E94910538F061
:100BC0000E94980520F0952311F00C9488050C9450
:100BD0008E0511240C94D3050E94B00570F3959FE7
:100BE000C1F3950F50E0551F629FF001729FBB2724
:100BF000F00DB11D639FAA27F00DB11DAA1F649FC0
:100C00006627B00DA11D661F829F2227B00DA11D72
:100C1000621F739FB00DA11D621F839FA00D611DF8
:100C2000221F749F3327A00D611D231F849F600D19
:100C3000211D822F762F6A2F11249F5750409AF042
:100C4000F1F088234AF0EE0FFF1FBB1F661F771FCE
:100C5000881F91505040A9F79E3F510580F00C9499
:100C600088050C94D3055F3FE4F3983ED4F3869552
:100C700077956795B795F795E7959F5FC1F7FE2B39
:100C8000880F911D9695879597F9089581E090E0DA
:0A0C9000F8940C944B06F894FFCF83
:100C9A0000000000B90122015001060281015F0132
:060CAA0073010D0A0000B9
:00000001FF
